:020000040800F2
:10000000700400204D100008DB0D0008DD0D000815
:10001000DF0D0008E10D0008E30D000800000000FE
:10002000000000000000000000000000E50D0008D6
:10003000E70D000800000000E90D0008EB0D0008C6
:10004000791000087D100008811000088510000854
:10005000891000088D10000891100008EF0D0008AD
:10006000FB0D000895100008991000089D1000086D
:10007000A1100008A5100008A9100008AD10000884
:10008000B1100008B5100008070E000800000000BD
:10009000000000000000000000000000B91000088F
:1000A000BD100008C1100008C5100008C9100008E4
:1000B000CD100008D1100008D5100008D910000894
:1000C000DD100008E1100008E5100008E910000844
:1000D000ED100008F1100008F5100008F9100008F4
:1000E000FD100008011100080511000800000000C3
:1000F0000000000000000000000000000000000000
:1001000000000000000000000000000000000000EF
:100110000000000000000000190E0008590E000841
:10012000012200F01F01D94B8A40400943F82020EA
:1001300070470901020006D5D54A00F00F001044AF
:1001400000F8041C7047D34B1954704700F00700A7
:1001500010B5C0F10703052B28BF0423041D072C8D
:1001600034BF0020C01E012404FA03F35B1E1940B3
:10017000814004FA00F0401E1040084310BDCB0D32
:1001800010B50C3003F004031818090D01F01F011D
:10019000036807248C40A34302FA01F1194301606C
:1001A00010BDBD4981B00A6802430A600968084071
:1001B0000090009801B07047F8B58CB000F090F94D
:1001C00000F088F8B54CA06840F00400A060A0687A
:1001D000800810F00100FAD100F0EBF8BCA0B04D9F
:1001E000D0E90067CDE9006702A8142100F0A0F96A
:1001F00007A8142100F09CF94FF40070FFF7D1FF1D
:100200000820FFF7CEFF40F201110791002208926B
:1002100007A9A448A44E00F0B1F9A4480068002240
:1002200000F0C3F801461220FFF783FF1220FFF70A
:1002300077FF0021009101912046694600F0E2F924
:10024000012103914FF460200221029000220591C8
:100250000492069202A9204600F0E9F9616B082099
:1002600060F304016163002291492046FFF787FF94
:1002700000F064F898A00021D0E90023CDE9002324
:10028000C8207060F060B160B1613560304600F048
:10029000F7F90021009101913046694600F0FEFA1D
:1002A000606840F020006060A06840F00100A0603D
:1002B0008048C16841F00101C160026842F001025A
:1002C0000260E86840F00100E860296841F001013F
:1002D0002960FEE738B5784C206820F0F80040F03F
:1002E00080002060216841F00101216020688007C2
:1002F000FCD5616821F0F0016160606820F4E06085
:100300006060606820F46050606060688008800011
:100310006060606810F00C0FFBD1684D284600F05B
:10032000E3FA6748016841F004010160284600F0E3
:10033000E7FA606820F44040606031BD10B586B0D7
:1003400001A8142100F0F4F85E485849046844F00C
:100350001004046000220068564C00F01000009069
:100360000098086800F021F801463620FFF7E1FE0A
:100370003620FFF7D5FE41F63F700021ADF80400AE
:1003800002910A22039201A9204600F0C1FA2068D6
:1003900020F080002060616821F070016160A06839
:1003A00020F08000A06006B010BD0021C0F3022044
:1003B000CCE678B585B06846102100F0B9F836482B
:1003C000414E0468374D44F0200404604FF20804A5
:1003D000016801F0200104910499026842F00402CE
:1003E0000260036803F0040304930499026842F076
:1003F000080202600022006800F008000490FF215B
:100400000498304600F099FB00222146284600F06F
:1004100094FBFF210091012201920021029102220E
:1004200003926946304600F0C1FA06202749009041
:100430000191012202926946284600F0B7FA4FF472
:10044000406000210090019102912846694600F029
:10045000ADFA012002210190002203910292009442
:100460006946284600F0A2FA00220021072000F089
:10047000A9FB072000F0C3FB00220021082000F0A8
:10048000A1FB082000F0BBFB06B070BD00E100E05E
:1004900018ED00E000E400E01810024000240140E4
:1004A00000140040000C0140100000200CED00E0A2
:1004B00008008003001000400010024000127A0083
:1004C00010E000E01C100240000801400000211074
:1004D000000000000000000000000000000000001C
:1004E00080B5032000F061FB002000F0B3FB00F0BA
:1004F000D1FB002002BD30B4002513E050F8042BDE
:10050000D30744BFA9F101039A18091F042942F82F
:10051000045BFAD213468C0744BF15809B1CC907A5
:1005200048BF1D7050F8041B0029E7D130BC70474C
:10053000002200F0EFBB000030B500F010F80F25EE
:1005400003E030B500F00BF803259B00B1FA81F110
:100550009D408900AC438A402243026030BD00EBDD
:10056000116091FAA1F3B3FA83F391FAA1F104684F
:10057000704730B5FFF7F3FF0425E6E72DE9F041BA
:100580000D4604462E683602360C96FAA6F0B0FAEE
:1005900080F7FFB236FA07F031D0C0072DD5082F0B
:1005A00007D34FF00110A7F10801884040F08068A0
:1005B00003E040F2011000FA07F86A68414620465D
:1005C000FFF7BAFF2869E1684FEA1822914392FACF
:1005D000A2F2B2FA82F290400843E0606868012813
:1005E00018BF092809D1AA6841462046FFF7A9FF8C
:1005F000EA6841462046FFF7BCFF7F1CCAE701209E
:10060000BDE8F08130B5024601209368DC070CD4C8
:1006100055684B6825F480751D43556094680968DA
:1006200024F400640C43946030BD002030BD70B5EC
:1006300083680122DC071DD44B6833B145688C68A0
:1006400025F468452B43234302E0436823F46843C1
:1006500043608668094D0B68CC682E401E430B69C9
:1006600026431E438660C46A496824F470040C4320
:10067000C46200E00022104670BD0000FDFEF1FFE4
:1006800038B5040001D1012032BD00F014F818B9CA
:1006900000F00DF800F01BFBFFE702206870211D41
:1006A000206800F0B0F801206870002032BD002101
:1006B00029702046704704F13C056878704710B5F2
:1006C0000446206801698A0715D5C1688A0712D5D2
:1006D0006FF00201016101222277806910F0030F9F
:1006E000204602D000F02FFB03E000F02DFB00F0CD
:1006F00087F800202077206801694A0715D5C1686E
:100700004A0712D56FF00401016102222277806945
:1007100010F4407F204602D000F015FB03E000F00B
:1007200013FB00F06DF800202077206801690A07AC
:1007300015D5C1680A0712D56FF0080101610422BE
:100740002277C06910F0030F204602D000F0FBFAB8
:1007500003E000F0F9FA00F053F800202077206859
:100760000169CA0615D5C168CA0612D56FF0100115
:10077000016108222277C06910F4407F204602D030
:1007800000F0E1FA03E000F0DFFA00F039F80020B1
:10079000207720680169CA0708D5C168CA0705D54E
:1007A0006FF001010161204600F0CFFA2068016975
:1007B0000A0608D5C1680A0605D56FF080010161F7
:1007C000204600F0C3FA206801694A0608D5C168CE
:1007D0004A0605D56FF040010161204600F0B7FAE6
:1007E000206801698A060AD5C1688A0607D56FF0B4
:1007F000200101612046BDE8104000F0A9BA10BDFB
:10080000204600F0A6BAF0B5DFF878E003681E4C89
:100810001E4D1F4E1F4FDFF880C0704518BFB0F14E
:10082000804F03D0604518BFB84209D14A6823F011
:100830007003134370451CBFB0F1804F604507D073
:10084000B84218BFB04203D0A84218BFA04203D19B
:10085000CA6823F4407313434A6923F080031343A7
:10086000036070458B68C36218BFB0420A68826239
:1008700003D0A84218BFA04201D109690163012237
:100880004261F0BD002C014000480140004401409D
:1008900000400140000800400004004030B500F175
:1008A0003C031A78012A01D1022030BD01221A70BE
:1008B00002245C700268546824F070045460046878
:1008C00065680A68154365600268946824F08004CE
:1008D00094600268946848680443946001215970E8
:1008E0000020187030BD00004FF47A720649B0FB4A
:1008F000F2F0401E486000238B60052008607047BE
:10090000024908607047000010E000E00C00002081
:10091000F0B5DFF880E00368DFF88C40DFF8845042
:10092000DFF87C60DFF87470DFF86CC0704518BFCA
:10093000B0F1804F03D0604518BFB84209D14A6872
:1009400023F07003134370451CBFB0F1804F604526
:1009500007D0B84218BFB04203D0A84218BFA04287
:1009600003D1CA6823F440731343036070458A6857
:10097000C26218BFB0420A88826203D0A84218BF80
:10098000A04201D1097C0163416941F0010141614B
:100990000120F0BD002C0140000400400008004090
:1009A0000040014000440140004801402DE9F84367
:1009B000024600200025674BDFF89C9101270E6856
:1009C000AF403E40BE4240F0AC804C686CB3012C5E
:1009D00020D0022C23D0032C32D0112C1CD0122C6E
:1009E00020D0DFF878E174451CBFDFF874E174456E
:1009F0001BD0DFF870E174451CBFDFF86CE1744573
:100A000013D0DFF868E174451CBFDFF864E174457A
:100A10000BD016E0C86814E0C868001D11E0C86873
:100A200008300EE0C8680C300BE0886808B9042074
:100A300007E0012819BF082057610820176100E06E
:100A40000020B6F5807F03D294464FEA850E05E07C
:100A5000A5F1080402F1040C4FEA840E0F27DCF81C
:100A6000008007FA0EF428EA040400FA0EFE4EEAAB
:100A70000404CCF800404C68E40052D5D9F800409A
:100A8000DFF8F0E044F00104C9F800404FEA950CAB
:100A9000D9F8004004F0010400944FEA8508009C56
:100AA0005EF82C4008F00C0807FA08F724EA07075C
:100AB000314CA24208BF00240ED0304CA24208BFE5
:100AC000012409D02E4CA24208BF022404D02D4C90
:100AD000A2420CBF0324042404FA08F427434EF86E
:100AE0002C70F7434C68E4031C684CBF34433C4013
:100AF0001C604C68A4035C684CBF34433C405C60A1
:100B00004C68E4029C684CBF34433C409C604C6899
:100B1000A40203D5DF683E43DE6002E0DE683740B2
:100B2000DF606D1C0F2D7FF649AFBDE8F183806853
:100B3000084018BF0120C0B2704702B90904016122
:100B40007047114A136803421CBF106000F01EB8C2
:100B5000704700000004014018100240000011100E
:100B600000001210000021100000221000003110BF
:100B7000000032100800014000080140000C014054
:100B800000100140001401401404014070470000AF
:100B90000901020006D5294A00F00F00104400F8B0
:100BA000041C7047264B19547047264B19684FF6A2
:100BB000FF020002114000F4E060084322490843AC
:100BC0001860704738B51F4B1C68C4F30223C3F18B
:100BD0000704052C28BF04241D1D072D34BF002346
:100BE000DB1E012505FA04F4641E2140994005FA34
:100BF00003F35B1E1A401143BDE83440C8E70122ED
:100C000000F01F01114BFFE78A40400943F8202004
:100C1000704710B5401EB0F1807F01D3012010BD98
:100C20000B4C60600F214FF0FF30FFF7B1FF002148
:100C3000A16007202060002010BD000018ED00E03A
:100C400000E400E00CED00E00000FA0500E100E047
:100C500010E000E038B50D4D0D4B2A7804464FF4F6
:100C60007A711868B1FBF2F2B0FBF2F0FFF7D1FF36
:100C700050B9102C08D2002221464FF0FF30FFF768
:100C8000A1FFAC60002032BD012032BD0000002079
:100C90000C0000201B4881B0016841F00101016097
:100CA000026802F0010200920099426842F080520C
:100CB0004260406800F0805000900098124801683F
:100CC00021F0E06141F00071016001B070470068FF
:100CD0000E49884200D0704780B50D48026842F046
:100CE000200202600022006800F020000090002135
:100CF00000983720FFF766FFBDE802403720FFF776
:100D00007EBF0000181002400400014000140040A3
:100D10001C10024000B500BF1300964694461039DF
:100D200028BFA0E80C50FAD85FEA417C28BF0CC06D
:100D300048BF40F8042BC90728BF20F8022B48BF42
:100D400000F8012B00BD704770477047704770472F
:100D5000704770471028664B3ED8DFE800F0090C5A
:100D60000F1215181B1E212326292C2F323538006F
:100D700000223F212DE0002206212AE000225B21F3
:100D800027E000224F2124E00022662121E00022FA
:100D90006D211EE000227D211BE00022072118E0CA
:100DA000002215E000226F2113E00022772110E0DD
:100DB00000227C210DE0002239210AE000225E2180
:100DC00007E00022792104E00022712101E00122E4
:100DD0007F211846FFF7B1BE70477047FEE7FEE778
:100DE000FEE7FEE770477047704700F09FB8414943
:100DF000012008600220FFF7A4BE3E4900200860E1
:100E00000420FFF79EBE3C483C4A6FF0020101609F
:100E1000C06C80B21060704738B5394A394D3A4CD1
:100E20006FF0010010604FF480612846FFF77FFEED
:100E300010B92068401C20604FF400612846FFF77D
:100E400076FE10B92068401E20603048016841F4E9
:100E5000A001016031BD000070B52D492D4C294D18
:100E60006FF001000860002226684FF470412846A8
:100E7000FFF763FE06F00306032E15D8DFE806F041
:100E80000E0A060201224FF400410AE001224FF44B
:100E9000804106E001224FF4005102E001224FF4AC
:100EA00080512846FFF749FE206800F00300032820
:100EB00016D8DFE800F002050711174908680DE0B1
:100EC00016480AE016480068FFF744FF0022802118
:100ED0000748FFF732FE03E012480068FFF73AFFC9
:100EE0002068401C2060BDE870400F48FFF7E7BB5A
:100EF000000801406C000020002401406800002030
:100F000010100040000C0140600000200824014047
:100F10001014004064000020500000205400002005
:100F2000580000205C0000201000002002494A68A0
:100F3000087882184A6070470000002010B50F4AF8
:100F40000F49106840F00100106053680D480B40D5
:100F50005360146804401460116821F4802111600A
:100F60004FF41F01506820F4FE0050609160002093
:100F7000D0624FF00061044A116010BD00100240C1
:100F80000000FFF8FFFFF6FE08ED00E030B450F877
:100F9000041B79B10268436802440830DC0744BF8F
:100FA000A9F10104E31852F8045B43F8045B091F3C
:100FB000F9D1ECE730BC704710B5074979441831D6
:100FC000064C7C44163404E00A68081D1144884726
:100FD0000146A142F8D110BD080000002800000021
:100FE00017F5FFFF60000000100000200000000067
:100FF0009DFFFFFF100000006400000000000020C3
:101000000000000000F00DF8002801D0FFF7D4FF29
:10101000AFF300800020AFF30080FFF7CDF800F0C1
:1010200002F80120704700F001B80000074638467A
:1010300000F002F8FBE7000080B5AFF30080024A41
:1010400011001820ABBEFBE72600020001488047D4
:10105000014800473D0F00086D1000080100000026
:10106000000000001000000000366E01AFF30080A9
:10107000AFF30080FFF7C6FFFFF7FEBFFFF7FEBF2D
:10108000FFF7FEBFFFF7FEBFFFF7FEBFFFF7FEBF94
:10109000FFF7FEBFFFF7FEBFFFF7FEBFFFF7FEBF84
:1010A000FFF7FEBFFFF7FEBFFFF7FEBFFFF7FEBF74
:1010B000FFF7FEBFFFF7FEBFFFF7FEBFFFF7FEBF64
:1010C000FFF7FEBFFFF7FEBFFFF7FEBFFFF7FEBF54
:1010D000FFF7FEBFFFF7FEBFFFF7FEBFFFF7FEBF44
:1010E000FFF7FEBFFFF7FEBFFFF7FEBFFFF7FEBF34
:1010F000FFF7FEBFFFF7FEBFFFF7FEBFFFF7FEBF24
:08110000FFF7FEBFFFF7FEBF81
:040000050800106D72
:00000001FF
