:020000040800F2
:100000005004002089190008F10A0008F30A0008CA
:10001000F50A0008F70A0008F90A000800000000C5
:10002000000000000000000000000000FB0A0008C3
:10003000FD0A000800000000FF0A0008010B00088C
:10004000A5190008A9190008AD190008B119000880
:10005000B5190008B9190008BD190008050B0008FA
:10006000C1190008C5190008110B0008C9190008BA
:10007000CD190008D1190008D5190008D9190008B0
:10008000DD190008E11900081D0B00080000000040
:10009000000000000000000000000000E51900085A
:1000A000E9190008ED190008F1190008F519000810
:1000B000F9190008FD190008011A0008051A0008BE
:1000C000091A00080D1A0008111A0008151A00086C
:1000D000191A00081D1A0008211A0008251A00081C
:1000E000291A00082D1A0008311A00080000000023
:1000F0000000000000000000000000000000000000
:1001000000000000000000000000000000000000EF
:100110000000000000000000B50B0008CD0C000836
:10012000012200F01F01D44B8A40400943F82020EF
:1001300070470901020006D5D04A00F00F001044B4
:1001400000F8041C7047CE4B1954704700F00700AC
:1001500010B5C0F10703052B28BF0423041D072C8D
:1001600034BF0020C01E012404FA03F35B1E1940B3
:10017000814004FA00F0401E1040084310BDCB0D32
:1001800010B50C3003F004031818090D01F01F011D
:10019000036807248C40A34302FA01F1194301606C
:1001A00010BDB84900E0B84981B00A6802430A604E
:1001B000096808400090009801B07047F8B58CB00D
:1001C00000F086F900F0C1F8B04CA06840F00400DF
:1001D000A060A068800810F00100FAD100F0E9F8F2
:1001E000B9A0AB4DD0E90067CDE9006702A81421A2
:1001F00000F07AF907A8142100F076F94FF40070A6
:10020000FFF7D1FF0820FFF7CEFF40F20111079161
:100210000022089207A99F489F4E00F08BF900F03A
:100220008EF801461220FFF784FF1220FFF778FFB7
:100230000021009101912046694600F0BFF901219B
:1002400003914FF460200221029000220591049254
:10025000069202A9204600F0C6F9616B082060F3FF
:100260000401616300228D492046FFF788FF68463C
:10027000142100F039F91020FFF793FF00F05FF828
:1002800001463620FFF755FF3620FFF749FF41F6BC
:100290003F700021ADF8000001910A2202926946E8
:1002A000304600F0C9F9306820F080003060716895
:1002B00021F0700171601421B06820F08000B060FE
:1002C000684600F011F92020FFF76BFF00F037F8C7
:1002D00001463720FFF72DFF3720FFF721FFC82009
:1002E0000021ADF800000191029069466C4D28464E
:1002F00000F0A2F9286820F080002860696821F0E9
:1003000070016960A86820F08000A860606840F013
:1003100020006060A06840F00100A060F06840F03C
:100320000100F060316841F001013160E86840F09F
:100330000100E860296841F001012960FEE72868B2
:1003400000220021C0F3022000E738B5554C206898
:1003500020F0F80040F080002060216841F00101A9
:10036000216020688007FCD5616821F0F0016160A0
:10037000606820F4E0606060606820F46050606055
:100380006068800880006060606810F00C0FFBD12E
:10039000454D284600F09EF94448016841F00401AB
:1003A0000160284600F0A2F9606820F440406060D7
:1003B00031BD78B585B06846102100F095F8324817
:1003C0003B4E0468334D44F0200404604FF20804AF
:1003D000016801F0200104910499026842F00402CE
:1003E0000260036803F0040304930499026842F076
:1003F000080202600022006800F008000490FF215B
:100400000498304600F041FA00222146284600F0C8
:100410003CFAFF2100910122019200210291022267
:1004200003926946304600F069F91220214900F034
:1004300043F84FF44060002100F03EF80120022113
:10044000019000220391029200946946284600F030
:1004500055F900220021072000F05CFA072000F087
:1004600076FA002200210A2000F054FA0A2000F057
:100470006EFA06B070BD000000E100E018ED00E08B
:1004800000E400E01C10024018100240002401406B
:100490000CED00E0000C014000100040080080035B
:1004A000001400400010024000127A0010E000E04A
:1004B00000080140000021100090019101220292E9
:1004C0006946284600F01AB900000000000000004C
:1004D00080B5032000F011FA002000F063FA00F06C
:1004E00081FA002002BD0000002200F09DBA000049
:1004F00030B500F010F80F2503E030B500F00BF830
:1005000003259B00B1FA81F19D408900AC438A40EC
:100510002243026030BD00EB116091FAA1F3B3FAFF
:1005200083F391FAA1F10468704730B5FFF7F3FF48
:100530000425E6E72DE9F0410D4604462E68360213
:10054000360C96FAA6F0B0FA80F7FFB236FA07F04A
:1005500031D0C0072DD5082F07D34FF00110A7F1D8
:100560000801884040F0806803E040F2011000FA82
:1005700007F86A6841462046FFF7BAFF2869E16834
:100580004FEA1822914392FAA2F2B2FA82F2904014
:100590000843E0606868012818BF092809D1AA68E3
:1005A00041462046FFF7A9FFEA6841462046FFF78B
:1005B000BCFF7F1CCAE70120BDE8F08130B50246D0
:1005C00001209368DC070CD455684B6825F48075CE
:1005D0001D4355609468096824F400640C439460DA
:1005E00030BD002030BD70B583680122DC071DD40A
:1005F0004B6833B145688C6825F468452B43234329
:1006000002E0436823F4684343608668094D0B6841
:10061000CC682E401E430B6926431E438660C46A85
:10062000496824F470040C43C46200E000221046C0
:1006300070BD0000FDFEF1FFF0B5DFF880E003685B
:10064000DFF88C40DFF88450DFF87C60DFF87470EE
:10065000DFF86CC0704518BFB0F1804F03D0604523
:1006600018BFB84209D14A6823F07003134370459C
:100670001CBFB0F1804F604507D0B84218BFB042F0
:1006800003D0A84218BFA04203D1CA6823F4407324
:100690001343036070458A68C26218BFB0420A887B
:1006A000826203D0A84218BFA04201D1097C016335
:1006B000416941F0010141610120F0BD002C014080
:1006C0000004004000080040004001400044014098
:1006D000004801404FF47A720649B0FBF2F0401E28
:1006E000486000238B60052008607047024908605D
:1006F0007047000010E000E02C0000202DE9F843D6
:10070000024600200025674BDFF89C9101270E6808
:10071000AF403E40BE4240F0AC804C686CB3012C10
:1007200020D0022C23D0032C32D0112C1CD0122C20
:1007300020D0DFF878E174451CBFDFF874E1744520
:100740001BD0DFF870E174451CBFDFF86CE1744525
:1007500013D0DFF868E174451CBFDFF864E174452D
:100760000BD016E0C86814E0C868001D11E0C86826
:1007700008300EE0C8680C300BE0886808B9042027
:1007800007E0012819BF082057610820176100E021
:100790000020B6F5807F03D294464FEA850E05E02F
:1007A000A5F1080402F1040C4FEA840E0F27DCF8CF
:1007B000008007FA0EF428EA040400FA0EFE4EEA5E
:1007C0000404CCF800404C68E40052D5D9F800404D
:1007D000DFF8F0E044F00104C9F800404FEA950C5E
:1007E000D9F8004004F0010400944FEA8508009C09
:1007F0005EF82C4008F00C0807FA08F724EA07070F
:10080000314CA24208BF00240ED0304CA24208BF97
:10081000012409D02E4CA24208BF022404D02D4C42
:10082000A2420CBF0324042404FA08F427434EF820
:100830002C70F7434C68E4031C684CBF34433C40C5
:100840001C604C68A4035C684CBF34433C405C6053
:100850004C68E4029C684CBF34433C409C604C684C
:10086000A40203D5DF683E43DE6002E0DE68374065
:10087000DF606D1C0F2D7FF649AFBDE8F183806806
:10088000084018BF0120C0B2704702B909040161D5
:100890007047114A136803421CBF106000F01EB875
:1008A00070470000000401401810024000001110C1
:1008B0000000121000002110000022100000311072
:1008C000000032100800014000080140000C014007
:1008D0000010014000140140140401407047000062
:1008E0000901020006D5294A00F00F00104400F863
:1008F000041C7047264B19547047264B19684FF655
:10090000FF020002114000F4E0600843224908435E
:100910001860704738B51F4B1C68C4F30223C3F13D
:100920000704052C28BF04241D1D072D34BF0023F8
:10093000DB1E012505FA04F4641E2140994005FAE6
:1009400003F35B1E1A401143BDE83440C8E701229F
:1009500000F01F01114BFFE78A40400943F82020B7
:10096000704710B5401EB0F1807F01D3012010BD4B
:100970000B4C60600F214FF0FF30FFF7B1FF0021FB
:10098000A16007202060002010BD000018ED00E0ED
:1009900000E400E00CED00E00000FA0500E100E0FA
:1009A00010E000E038B50D4D0D4B2A7804464FF4A9
:1009B0007A711868B1FBF2F2B0FBF2F0FFF7D1FFE9
:1009C00050B9102C08D2002221464FF0FF30FFF71B
:1009D000A1FFAC60002032BD012032BD200000200C
:1009E0002C0000200E4881B0016841F00101016037
:1009F000026802F0010200920099426842F08052BF
:100A00004260406800F080500090009805480168FE
:100A100021F0E06141F00071016001B0704700BF5A
:100A2000181002400400014000B500BF13009646B4
:100A30009446103928BFA0E80C50FAD85FEA417CF0
:100A400028BF0CC048BF40F8042BC90728BF20F8B6
:100A5000022B48BF00F8012B00BD000038B504464A
:100A6000BE4D0022FF212846FFF70FFF102C3ED875
:100A7000DFE804F0090C0F1215181B1E362124277D
:100A80002A2D3033360001223F212BE0012206219E
:100A900028E001225B2125E001224F2122E00122F2
:100AA00066211FE001226D211CE001227D2119E059
:100AB0000122072116E001226F2113E00122772194
:100AC00010E001227C210DE0012239210AE00122FF
:100AD0005E2107E00122792104E00122712101E079
:100AE00001227F212846BDE83840FFF7CEBE31BD48
:100AF0007047FEE7FEE7FEE7FEE770477047704786
:100B000000F066B99649012008600220FFF7C1BED7
:100B10009349002008601020FFF7BBBE2DE9F84381
:100B20009048914D914E924F6FF0020101604FF04D
:100B30006634C06C80B200F053F9224600F0C2F86F
:100B400000228C4B00F05AF9C6E90001D6E90023D7
:100B50000020894900F052F9D6E9002380468946F1
:100B60002046294600F01CFA02460B4640464946FC
:100B700000F088FAC7E900010022D7E900017F4BA5
:100B800000F080FA00F0A2FB002100F0D3FB09D8AE
:100B900000F0E2FB7A4900F019FC0146794800F0C8
:100BA00087FC00E0784800F001FD784AC2E90001C6
:100BB000BDE8F1832DE9F047754ADFF8D8A1DFF8E9
:100BC000D8816FF0010010604FF480615046FFF74C
:100BD00056FE70B9D8E900010122704B00F00AFD01
:100BE00007D2D8E900236E486E4900F01BFDC8E922
:100BF00000014FF400615046FFF741FE70B9D8E99B
:100C000000010022002300F0CBFD07D8D8E9002323
:100C10006348654900F006FDC8E90001504F634E86
:100C20003868634DDFF8649120B900F048F800F0AF
:100C3000CFFD30603868012804D100F040F800F0A2
:100C4000C7FD30604FF47A71306890FBF1F10A22F1
:100C50000A2091FBF2F2574B00FB12111960642439
:100C600000F026F8544B00FB121119600A2400F022
:100C70001FF8524B00FB12111960316891FBF4F41C
:100C800000FB14104E490860D8E90001D9E900239F
:100C900000F0B0FC34BF0122002208215046FFF7CB
:100CA000F4FD4848016841F4A0010160BDE8F08707
:100CB000316891FBF4F10A2291FBF2F27047D9E915
:100CC000000100222B4600F099B8000070B53E49A3
:100CD0003E4C304D6FF001000860012226684FF451
:100CE00070412846FFF7D1FD06F00306032E15D804
:100CF000DFE806F00E0A060200224FF400410AE087
:100D000000224FF4804106E000224FF4005102E03F
:100D100000224FF480512846FFF7B7FD206800F00D
:100D20000300032816D8DFE800F002050711214967
:100D300008680DE020480AE020480068FFF78EFEB2
:100D4000002280210548FFF7A0FD03E01C48006851
:100D5000FFF784FE2068401C206070BD0008014041
:100D6000440000200024014066660A40180000206C
:100D7000100000200000303F00409F400070A7405E
:100D800000005041004079457662994308000020F8
:100D900010100040000C01400000002000408F4077
:100DA0009A9999999999B93F9999B9BF48000020A2
:100DB00000002440300000203400002038000020D3
:100DC0003C00002008240140101400404000002096
:100DD00002494A68087882184A607047200000205B
:100DE000014648B1B0FA80F18840C91CC1F5846160
:100DF000090501EBD021400570470000B0B581EA3C
:100E0000030C0CF0004C40F2FF7515EA11541DBFA5
:100E100015EA1357AC42AF4239E0E41923EA4553CF
:100E200043F48013C90241F0004141EA505EC70219
:100E30001100A7FB020200284FF00000EEFB01208A
:100E40004FF00001E3FB072118BF42F001024018F8
:100E500000214941E3FB0E01A4F580640F0302D297
:100E600052004041494154F101046CDD470872F1E0
:100E7000004250F1000051EB0451A1F580115CBF1C
:100E800041EA0C01B0BD4CEA05510020B0BD05EAB5
:100E90001357AC4214BFAF4241E050EA410E1CBFB1
:100EA00052EA430E02E061460020B0BD24423C44B9
:100EB0001BD15FEA070EF6D0090302BF01460020EE
:100EC000AEF1140EB1FA81F7AEEB070401FA07FE9A
:100ED0000C37C7F1200100FA07F7C8404EEA000EB0
:100EE00023EA455343F48013A2E733F00043B3FAF7
:100EF00083F704BFB2FA82FE77440B3FE41BB7F1DD
:100F0000200E2FBF02FA0EF3BB40C7F1200E22FACB
:100F10000EFE38BF43EA0E03BA40641C82E750EA73
:100F2000410E14BF52EA430E6FF000014FF4001758
:100F300017EB430F8ABF194617EB410FB5E74CEA91
:100F400005510020B0BDD4F10104B4F120070FDA3F
:100F5000C4F12007520828BF42F0010210FA07F539
:100F600001FA07F7E1BF2A43E0403843E1400FE0D0
:100F7000352C98DCC7F1200452EA400220FA07F22F
:100F800018BF42F0010231FA07F0A1400A430021E4
:100F900072F1004250F1000051EB0C01B0BD0000B5
:100FA00070B44FF0004591EA030F40F143836B406A
:100FB000841A71EB030603D2001BB141121973416D
:100FC0004FF4001C1CEB410F34BF7CEB430442E0A8
:100FD0000C0DA4EB1356352E4FDC45EAC323DB0A78
:100FE00045EAC121C912B6F120050DDD63FA05F607
:100FF000EB4086EA0305124218BF45F00105C01810
:1010000051F100010CD213E062FA06F5F2405540AE
:10101000F3415A40B340F3405A408018594107D336
:1010200049085FEA30005FEA350528BF45F0010551
:1010300001F58011420875F1004250F1000041EBCA
:1010400004514E0016F5001F70BC38BF70470020D9
:10105000090D090570471CEB410F10D252EA4306F7
:101060000BD0BCEB410F05D80C0DAB43661E342EE4
:10107000B6DD02E0AB438018594170BC704770BCCC
:1010800070470000F0B540F2FF7581EA030C0CF0E8
:10109000004C15EA11541DBF15EA1357AC42AF427C
:1010A000E5E0BC41C1F31301C3F31303801A994176
:1010B00043F4801304D2641E400049418018594112
:1010C000C90241EA5051B1FBF3F603FB1611A2FB32
:1010D0000675D7EBC020A94102D2761E801859416F
:1010E000C90241EA5051B1FBF3FE03FB1E11A2FB02
:1010F0000E75D7EBC020A94103D2AEF1010E8018C6
:101100005941890241EA9051760546EA8E2EB1FB9B
:10111000F3F603FB1611A2FB0675D7EB8020A9415D
:1011200002D2761E80185941C90241EA50514EEA56
:10113000060EB1FBF3F603FB1611A2FB0675D7EB07
:10114000C020A94102D2761E80185941C90241EA45
:101150005051B1FBF3F703FB1711A2FB0735D3EB9B
:10116000C020A94167F100070CBF004247F001070A
:1011700066F3D5274FEA1E31B80814F5806412DDF6
:10118000BD0775F1004250EB0E5051EB045111F5C3
:10119000801F5CBF41EA0C01F0BD4CF07F6141F063
:1011A000E0410020F0BDBD076D0840EA0E5041F45B
:1011B0008011D4F10104B4F120060ADAC4F120064A
:1011C0000200E04001FA06F3E1401843B240154343
:1011D0000EE0342C13DCC6F1200445EA40056D080E
:1011E00020FA06F2154321FA06F0A1400D43002132
:1011F00075F1004250F1000051EB0C01F0BD0020F0
:101200005FEA0C01F0BDCFB992185B41B3FA83F7E6
:1012100004BFB2FA82F6BF190B3FB7F120062FBF09
:1012200002FA06F3BB40C7F1200622FA06F638BFE1
:101230003343BA401CB1E419641E33E77F4231F0F6
:101240000041B1FA81F404BFB0FA80F6A4190B3C56
:10125000B4F120062FBF00FA06F1A140C4F1200628
:1012600020FA06F638BF3143A0403C1B1AE7AC42D7
:101270001ABF05EA1357AF4212E050EA41061CBFFD
:1012800052EA4306BFE750EA4107304661461CBFB9
:1012900041EA0551F0BD52EA430C08BFC143F0BD1D
:1012A00000204FF4001616EB410F98BF16EB430FCA
:1012B00008BF16EB410F24BFC14305E016EB430FF7
:1012C0000CBF61464CEA0551F0BD000001F0004240
:1012D0008B1AA3F16051B1F5801F0ADBB1F17F6F6A
:1012E0001FD242EAC102C10071F1004142EB5070CD
:1012F00070470B15C3F10903212B10D2890241EA73
:10130000905180020128494141F0004121FA03F047
:10131000C3F12003994071F1004150417047100022
:1013200070476FF0000013EB103F5CBF000E42EA05
:10133000C05070474FF0807C1CEB400F94BF1CEBFB
:10134000410F05E040EA010C1CEB0C0F01D2814279
:10135000704718BF884270474FF40002C10D23D078
:10136000FF2929D230EAC15010437D31490828BFF6
:10137000001880004FF0C073B0F1906006D452089E
:101380000ED2C01A9B18D2EB4000F8D5520806D2F4
:10139000C0189B1AD2EB4000F1D55208F8D35B1E5F
:1013A000580850EBC1507047B0FA80F108398840B6
:1013B000F9D0D1F10101D8E7FF2914BFC042F2E70B
:1013C000D042F0D8C843AFF30080704790EA010FD5
:1013D00040F11C8281F00041431A4FF000423EBFB1
:1013E0005340C01AC91800BFD3095FEAD05C13EBA1
:1013F000400F34BFB3EB410F40E07CEBD1530CD333
:1014000042EA012122D8D1EB402009D3400A28BF6B
:101410005FEA500140EBCC507047401A15D04002B3
:10142000B0FA80F2521C9040400A4FEA3C23B3EBE2
:10143000026384BF00EB730007E040F400001A165B
:10144000DB07C2F10102D04018437047182BFCDCC7
:1014500031FA03F202FA03F3591A38BF42F00102DB
:10146000D2EB40203CBF4000ACF1010C5FEACC5C09
:10147000C20572F100414CEB5020704713EB400F56
:101480000FD2C94209D0ACEBD153022B03DB490286
:10149000172BDDDD70479143401AC042D5D10020A3
:1014A000704713EB410FD0D36FF00000704700007E
:1014B00010B5FF2313EAD0541DBF13EAD1529C424A
:1014C0009A4239E0A41ADA0780EA0103134042EA9B
:1014D000012142EA0020421A3CBF641E01EB420295
:1014E000090AB2FBF1FE01FB1E221202B2FBF1F06F
:1014F00001FB10226EF30F201202B2FBF1FE4EEA46
:1015000000207F3406DDFE2C24DA53EA500050EB35
:10151000C45010BDD4F1020401FB1E2240F08071C2
:10152000192C1DDC21FA04F0C4F12004A140114360
:1015300071F10042584110BD9C421ABF03EAD152DA
:101540009A420FE080EA010E0EF00043400004D002
:10155000490016D143F0FF4010BD490008BFD343F6
:10156000180010BD9C4205D1D21AF7D001F00041FD
:10157000484010BD4A0212BF0846484000F00040F3
:1015800010BD4AB90902B1FA81F2914044B1A418E0
:10159000C00140F000409EE7C90141F000415242C5
:1015A0000002B0FA80F4A040141B94E7C0F3C751C6
:1015B00081B1FF2906D0C110400721F0E04101F1BF
:1015C0006051704741020CBF40F4E0016FF00041F0
:1015D0000020704700F0004100020AD0B0FA80FC01
:1015E00000FA0CF001F16051A1EB0C5101EBD0219C
:1015F000400570474FF4001C1CEB410F94BF1CEBDF
:10160000430F09E041EA030C50EA4C0C52EA0C0C7F
:1016100003D2994208BF9042704714BF8B42824266
:101620007047000070B44FF0004591EA030F7FF55A
:10163000BFAC6B40841A71EB030604D26E40001BF2
:10164000B141121973414FF4001C1CEB410F34BF20
:101650007CEB430683E00C0DA4EB1356362E00F30F
:101660007C80012E45EAC32341DC43EA525312BF7A
:10167000D20292025B08240545EAC12141EA505199
:10168000D2EBC020994125D407D1B0FA80F610FAE8
:1016900006F162D00020203608E0B1FA81F6B140B0
:1016A000C6F1200220FA02F21143B0404FEAF4746E
:1016B000B4EB465434F001064FEA74040AD8D6F568
:1016C0000016760D04F00044F04061FA06F2504036
:1016D000F1404840C00A40EA415021F0004128BF93
:1016E0005FEA500550F1000044EBD12135E0DB0A00
:1016F00045EAC121C90AB6F120050EDD42EA0242DF
:10170000120CC5F1200603FA06F6EB4042EA060584
:101710006D42984161F100010DE062FA06F5F24078
:10172000554063FA06FC82EA0C02F3405A406D42CF
:10173000904161EB030111F4801F05D1641E620525
:1017400002D06D004041494121F48011430875F1F8
:10175000004350F1000041EB045170BC70471CEB9A
:10176000410F15D223F0004352EA43060BD04FEA53
:101770004C0CBCEB410F04D80C0D661E342EB7DDAB
:10178000EBE7801A994150EA410608BF0021E4E7DF
:1017900008BF1CEB430F28BF6FF00001DDE700001E
:1017A0004FF4001C1CEB410F94BF1CEB430F09E0EE
:1017B00041EA030C50EA4C0C52EA0C0C03D28B4267
:1017C00008BF8242704714BF9942904270470000A0
:1017D000C1F30A5340F2FE329B1A14DDD3F1200309
:1017E0004FEAE17208DDC90241EA505141F0004080
:1017F000D84080185040704703F2E13010B1D24316
:1018000082F000407047002070470000421A3CBF41
:10181000801A89184FF0004CC0F3C752FF2A24D019
:10182000C1F3C75313B3D21AD2F1190327DD4CEA1F
:1018300001214CFA03F321EA0303D140C20D4CEA23
:101840000020401834BF20EA0C004CEA5000D205BA
:1018500053EA006373EB0C0C52EB1020420012F1C0
:10186000807F38BF7047C00DC0057047490212BF66
:101870009A4200EB5120F8E7D2F11703D9D570470F
:1018800010B50F4A0F49106840F00100106053680E
:101890000D480B405360146804401460116821F433
:1018A000802111604FF41F01506820F4FE00506049
:1018B00091600020D0624FF00061044A116010BDB9
:1018C000001002400000FFF8FFFFF6FE08ED00E008
:1018D00030B5016884684218416802EB5103C907BA
:1018E0000BD54C4409E012F9011B12F8015B0029E9
:1018F00004F8015B05D5491CF9D19A42F3D10C30AB
:1019000030BD491EF1D5F8E710B5074979441831C3
:10191000064C7C44163404E00A68081D11448847CC
:101920000146A142F8D110BD0800000014000000DB
:10193000A1FFFFFF000100002A00000000000020BE
:1019400000F00DF8002801D0FFF7DEFFAFF30080B4
:101950000020AFF30080FEF731FC00F002F8012018
:10196000704700F001B800000746384600F002F862
:10197000FBE7000080B5AFF30080024A1100182099
:10198000ABBEFBE726000200014880470148004744
:101990008118000899190008AFF30080AFF30080A8
:1019A000FFF7CEFFFFF7FEBFFFF7FEBFFFF7FEBF5B
:1019B000FFF7FEBFFFF7FEBFFFF7FEBFFFF7FEBF5B
:1019C000FFF7FEBFFFF7FEBFFFF7FEBFFFF7FEBF4B
:1019D000FFF7FEBFFFF7FEBFFFF7FEBFFFF7FEBF3B
:1019E000FFF7FEBFFFF7FEBFFFF7FEBFFFF7FEBF2B
:1019F000FFF7FEBFFFF7FEBFFFF7FEBFFFF7FEBF1B
:101A0000FFF7FEBFFFF7FEBFFFF7FEBFFFF7FEBF0A
:101A1000FFF7FEBFFFF7FEBFFFF7FEBFFFF7FEBFFA
:101A2000FFF7FEBFFFF7FEBFFFF7FEBFFFF7FEBFEA
:101A3000FFF7FEBFFA00013440E8000001F90000A2
:091A400010FC0002366E01E40006
:04000005080019993D
:00000001FF
