:020000040800F2
:10000000380400203D0E0008F10A0008F30A000839
:10001000F50A0008F70A0008F90A000800000000C5
:10002000000000000000000000000000FB0A0008C3
:10003000FD0A000800000000FF0A0008010B00088C
:10004000590E00085D0E0008610E0008650E0008DC
:10005000690E00086D0E0008710E0008050B0008FF
:10006000750E0008790E0008110B00087D0E0008BF
:10007000810E0008850E0008890E00088D0E00080C
:10008000910E0008950E00081D0B000800000000EE
:10009000000000000000000000000000990E0008B1
:1000A0009D0E0008A10E0008A50E0008A90E00086C
:1000B000AD0E0008B10E0008B50E0008B90E00081C
:1000C000BD0E0008C10E0008C50E0008C90E0008CC
:1000D000CD0E0008D10E0008D50E0008D90E00087C
:1000E000DD0E0008E10E0008E50E0008000000002B
:1000F0000000000000000000000000000000000000
:1001000000000000000000000000000000000000EF
:100110000000000000000000370B0008590C000828
:10012000012200F01F01D44B8A40400943F82020EF
:1001300070470901020006D5D04A00F00F001044B4
:1001400000F8041C7047CE4B1954704700F00700AC
:1001500010B5C0F10703052B28BF0423041D072C8D
:1001600034BF0020C01E012404FA03F35B1E1940B3
:10017000814004FA00F0401E1040084310BDCB0D32
:1001800010B50C3003F004031818090D01F01F011D
:10019000036807248C40A34302FA01F1194301606C
:1001A00010BDB84900E0B84981B00A6802430A604E
:1001B000096808400090009801B07047F8B58CB00D
:1001C00000F086F900F0C1F8B04CA06840F00400DF
:1001D000A060A068800810F00100FAD100F0E9F8F2
:1001E000B9A0AB4DD0E90067CDE9006702A81421A2
:1001F00000F07AF907A8142100F076F94FF40070A6
:10020000FFF7D1FF0820FFF7CEFF40F20111079161
:100210000022089207A99F489F4E00F08BF900F03A
:100220008EF801461220FFF784FF1220FFF778FFB7
:100230000021009101912046694600F0BFF901219B
:1002400003914FF460200221029000220591049254
:10025000069202A9204600F0C6F9616B082060F3FF
:100260000401616300228D492046FFF788FF68463C
:10027000142100F039F91020FFF793FF00F05FF828
:1002800001463620FFF755FF3620FFF749FF41F6BC
:100290003F700021ADF8000001910A2202926946E8
:1002A000304600F0C9F9306820F080003060716895
:1002B00021F0700171601421B06820F08000B060FE
:1002C000684600F011F92020FFF76BFF00F037F8C7
:1002D00001463720FFF72DFF3720FFF721FFC82009
:1002E0000021ADF800000191029069466C4D28464E
:1002F00000F0A2F9286820F080002860696821F0E9
:1003000070016960A86820F08000A860606840F013
:1003100020006060A06840F00100A060F06840F03C
:100320000100F060316841F001013160E86840F09F
:100330000100E860296841F001012960FEE72868B2
:1003400000220021C0F3022000E738B5554C206898
:1003500020F0F80040F080002060216841F00101A9
:10036000216020688007FCD5616821F0F0016160A0
:10037000606820F4E0606060606820F46050606055
:100380006068800880006060606810F00C0FFBD12E
:10039000454D284600F09EF94448016841F00401AB
:1003A0000160284600F0A2F9606820F440406060D7
:1003B00031BD78B585B06846102100F095F8324817
:1003C0003B4E0468334D44F0200404604FF20804AF
:1003D000016801F0200104910499026842F00402CE
:1003E0000260036803F0040304930499026842F076
:1003F000080202600022006800F008000490FF215B
:100400000498304600F041FA00222146284600F0C8
:100410003CFAFF2100910122019200210291022267
:1004200003926946304600F069F91220214900F034
:1004300043F84FF44060002100F03EF80120022113
:10044000019000220391029200946946284600F030
:1004500055F900220021072000F05CFA072000F087
:1004600076FA002200210A2000F054FA0A2000F057
:100470006EFA06B070BD000000E100E018ED00E08B
:1004800000E400E01C10024018100240002401406B
:100490000CED00E0000C014000100040080080035B
:1004A000001400400010024000127A0010E000E04A
:1004B00000080140000021100090019101220292E9
:1004C0006946284600F01AB900000000000000004C
:1004D00080B5032000F011FA002000F063FA00F06C
:1004E00081FA002002BD0000002200F09DBA000049
:1004F00030B500F010F80F2503E030B500F00BF830
:1005000003259B00B1FA81F19D408900AC438A40EC
:100510002243026030BD00EB116091FAA1F3B3FAFF
:1005200083F391FAA1F10468704730B5FFF7F3FF48
:100530000425E6E72DE9F0410D4604462E68360213
:10054000360C96FAA6F0B0FA80F7FFB236FA07F04A
:1005500031D0C0072DD5082F07D34FF00110A7F1D8
:100560000801884040F0806803E040F2011000FA82
:1005700007F86A6841462046FFF7BAFF2869E16834
:100580004FEA1822914392FAA2F2B2FA82F2904014
:100590000843E0606868012818BF092809D1AA68E3
:1005A00041462046FFF7A9FFEA6841462046FFF78B
:1005B000BCFF7F1CCAE70120BDE8F08130B50246D0
:1005C00001209368DC070CD455684B6825F48075CE
:1005D0001D4355609468096824F400640C439460DA
:1005E00030BD002030BD70B583680122DC071DD40A
:1005F0004B6833B145688C6825F468452B43234329
:1006000002E0436823F4684343608668094D0B6841
:10061000CC682E401E430B6926431E438660C46A85
:10062000496824F470040C43C46200E000221046C0
:1006300070BD0000FDFEF1FFF0B5DFF880E003685B
:10064000DFF88C40DFF88450DFF87C60DFF87470EE
:10065000DFF86CC0704518BFB0F1804F03D0604523
:1006600018BFB84209D14A6823F07003134370459C
:100670001CBFB0F1804F604507D0B84218BFB042F0
:1006800003D0A84218BFA04203D1CA6823F4407324
:100690001343036070458A68C26218BFB0420A887B
:1006A000826203D0A84218BFA04201D1097C016335
:1006B000416941F0010141610120F0BD002C014080
:1006C0000004004000080040004001400044014098
:1006D000004801404FF47A720649B0FBF2F0401E28
:1006E000486000238B60052008607047024908605D
:1006F0007047000010E000E0100000202DE9F843F2
:10070000024600200025674BDFF89C9101270E6808
:10071000AF403E40BE4240F0AC804C686CB3012C10
:1007200020D0022C23D0032C32D0112C1CD0122C20
:1007300020D0DFF878E174451CBFDFF874E1744520
:100740001BD0DFF870E174451CBFDFF86CE1744525
:1007500013D0DFF868E174451CBFDFF864E174452D
:100760000BD016E0C86814E0C868001D11E0C86826
:1007700008300EE0C8680C300BE0886808B9042027
:1007800007E0012819BF082057610820176100E021
:100790000020B6F5807F03D294464FEA850E05E02F
:1007A000A5F1080402F1040C4FEA840E0F27DCF8CF
:1007B000008007FA0EF428EA040400FA0EFE4EEA5E
:1007C0000404CCF800404C68E40052D5D9F800404D
:1007D000DFF8F0E044F00104C9F800404FEA950C5E
:1007E000D9F8004004F0010400944FEA8508009C09
:1007F0005EF82C4008F00C0807FA08F724EA07070F
:10080000314CA24208BF00240ED0304CA24208BF97
:10081000012409D02E4CA24208BF022404D02D4C42
:10082000A2420CBF0324042404FA08F427434EF820
:100830002C70F7434C68E4031C684CBF34433C40C5
:100840001C604C68A4035C684CBF34433C405C6053
:100850004C68E4029C684CBF34433C409C604C684C
:10086000A40203D5DF683E43DE6002E0DE68374065
:10087000DF606D1C0F2D7FF649AFBDE8F183806806
:10088000084018BF0120C0B2704702B909040161D5
:100890007047114A136803421CBF106000F01EB875
:1008A00070470000000401401810024000001110C1
:1008B0000000121000002110000022100000311072
:1008C000000032100800014000080140000C014007
:1008D0000010014000140140140401407047000062
:1008E0000901020006D5294A00F00F00104400F863
:1008F000041C7047264B19547047264B19684FF655
:10090000FF020002114000F4E0600843224908435E
:100910001860704738B51F4B1C68C4F30223C3F13D
:100920000704052C28BF04241D1D072D34BF0023F8
:10093000DB1E012505FA04F4641E2140994005FAE6
:1009400003F35B1E1A401143BDE83440C8E701229F
:1009500000F01F01114BFFE78A40400943F82020B7
:10096000704710B5401EB0F1807F01D3012010BD4B
:100970000B4C60600F214FF0FF30FFF7B1FF0021FB
:10098000A16007202060002010BD000018ED00E0ED
:1009900000E400E00CED00E00000FA0500E100E0FA
:1009A00010E000E038B50D4D0D4B2A7804464FF4A9
:1009B0007A711868B1FBF2F2B0FBF2F0FFF7D1FFE9
:1009C00050B9102C08D2002221464FF0FF30FFF71B
:1009D000A1FFAC60002032BD012032BD0400002028
:1009E000100000200E4881B0016841F00101016053
:1009F000026802F0010200920099426842F08052BF
:100A00004260406800F080500090009805480168FE
:100A100021F0E06141F00071016001B0704700BF5A
:100A2000181002400400014000B500BF13009646B4
:100A30009446103928BFA0E80C50FAD85FEA417CF0
:100A400028BF0CC048BF40F8042BC90728BF20F8B6
:100A5000022B48BF00F8012B00BD000038B504464A
:100A6000A14D0022FF212846FFF70FFF102C3ED892
:100A7000DFE804F0090C0F1215181B1E362124277D
:100A80002A2D3033360001223F212BE0012206219E
:100A900028E001225B2125E001224F2122E00122F2
:100AA00066211FE001226D211CE001227D2119E059
:100AB0000122072116E001226F2113E00122772194
:100AC00010E001227C210DE0012239210AE00122FF
:100AD0005E2107E00122792104E00122712101E079
:100AE00001227F212846BDE83840FFF7CEBE31BD48
:100AF0007047FEE7FEE7FEE7FEE770477047704786
:100B000000F010B97949012008600220FFF7C1BE4A
:100B10007649002008601020FFF7BBBE74486FF0D4
:100B200002010160C06C734980B2086008687249B4
:100B30008008086070472DE9F84F704ADFF8C081DF
:100B4000704C6FF0010010604FF480614046FFF779
:100B500096FE30B92068B0F57A7F02D82168491C2A
:100B600021604FF400614046FFF789FE18B9206804
:100B70002168491E21600A27DFF870E16249DEF82A
:100B80000000624A624B634EDFF86CC140BBDCF888
:100B900000504FF47A70B5FBF0F0B946B0FBF9F9AC
:100BA00007FB190030606425DCF800A0BAFBF5F003
:100BB000BB46B0FBFBFB07FB1B0018600A25DCF8FB
:100BC0000000B0FBF7F0B0FBF5F507FB1500106077
:100BD000BA46DCF80000B0FBFAFA07FB1A0008601E
:100BE000DEF80000012824D125684FF47A70B5FBA7
:100BF000F0F00A25B0FBF5F507FB15003060642521
:100C00002668B6FBF5F0B946B0FBF9F907FB190009
:100C100018600A262068B0FBF7F0B0FBF6F607FB79
:100C2000160010600A222068B0FBF2F207FB1207E0
:100C30000F602068DCF80010884234BF01220022D7
:100C400008214046FFF721FE3348016841F4A00126
:100C50000160BDE8F18F000070B53049304C284D7F
:100C60006FF001000860012226684FF470412846A9
:100C7000FFF70BFE06F00306032E15D8DFE806F09B
:100C80000E0A060200224FF400410AE000224FF44F
:100C9000804106E000224FF4005102E000224FF4B0
:100CA00080512846FFF7F1FD206800F0030003287B
:100CB00016D8DFE800F002050711164908680DE0B4
:100CC00013480AE011480068FFF7C8FE002280219F
:100CD0000548FFF7DAFD03E00B480068FFF7BEFEAA
:100CE0002068401C206070BD0008014030000020DA
:100CF000002401402C00002024000020101000409F
:100D0000000C014000000020200000201C000020FA
:100D10001800002014000020082401401014004096
:100D20002800002002494A68087882184A60704703
:100D30000400002010B50F4A0F49106840F0010070
:100D4000106053680D480B405360146804401460F1
:100D5000116821F4802111604FF41F01506820F4C4
:100D6000FE00506091600020D0624FF00061044AA4
:100D7000116010BD001002400000FFF8FFFFF6FEFA
:100D800008ED00E030B5016884684218416802EB64
:100D90005103C9070BD54C4409E012F9011B12F8A5
:100DA000015B002904F8015B05D5491CF9D19A4281
:100DB000F3D10C3030BD491EF1D5F8E710B5074925
:100DC00079441831064C7C44163404E00A68081D46
:100DD000114488470146A142F8D110BD0800000027
:100DE00014000000A1FFFFFF00010000240000002C
:100DF0000000002000F00DF8002801D0FFF7DEFF12
:100E0000AFF300800020AFF30080FFF7D7F900F0C8
:100E100002F80120704700F001B80000074638468C
:100E200000F002F8FBE7000080B5AFF30080024A53
:100E300011001820ABBEFBE72600020001488047E6
:100E400001480047350D00084D0E0008AFF3008043
:100E5000AFF30080FFF7CEFFFFF7FEBFFFF7FEBF47
:100E6000FFF7FEBFFFF7FEBFFFF7FEBFFFF7FEBFB6
:100E7000FFF7FEBFFFF7FEBFFFF7FEBFFFF7FEBFA6
:100E8000FFF7FEBFFFF7FEBFFFF7FEBFFFF7FEBF96
:100E9000FFF7FEBFFFF7FEBFFFF7FEBFFFF7FEBF86
:100EA000FFF7FEBFFFF7FEBFFFF7FEBFFFF7FEBF76
:100EB000FFF7FEBFFFF7FEBFFFF7FEBFFFF7FEBF66
:100EC000FFF7FEBFFFF7FEBFFFF7FEBFFFF7FEBF56
:100ED000FFF7FEBFFFF7FEBFFFF7FEBFFFF7FEBF46
:100EE000FFF7FEBFFFF7FEBF045E01000001F9003F
:0A0EF0000010FC0002366E01E00065
:0400000508000E4D94
:00000001FF
